{
  "address": "0xD24f495aa24447F2Ac95D733C3EB2c9b31af9FD8",
  "abi": [
    {
      "inputs": [],
      "stateMutability": "nonpayable",
      "type": "constructor"
    },
    {
      "inputs": [],
      "name": "UpgradeContract__AggregateValueError",
      "type": "error"
    },
    {
      "inputs": [
        {
          "internalType": "uint256",
          "name": "num",
          "type": "uint256"
        }
      ],
      "name": "UpgradeContract__ValidateNumError",
      "type": "error"
    },
    {
      "inputs": [
        {
          "internalType": "string",
          "name": "str",
          "type": "string"
        }
      ],
      "name": "UpgradeContract__ValidateStrError",
      "type": "error"
    },
    {
      "anonymous": false,
      "inputs": [
        {
          "indexed": false,
          "internalType": "address",
          "name": "previousAdmin",
          "type": "address"
        },
        {
          "indexed": false,
          "internalType": "address",
          "name": "newAdmin",
          "type": "address"
        }
      ],
      "name": "AdminChanged",
      "type": "event"
    },
    {
      "anonymous": false,
      "inputs": [
        {
          "indexed": true,
          "internalType": "address",
          "name": "beacon",
          "type": "address"
        }
      ],
      "name": "BeaconUpgraded",
      "type": "event"
    },
    {
      "anonymous": false,
      "inputs": [
        {
          "indexed": false,
          "internalType": "uint8",
          "name": "version",
          "type": "uint8"
        }
      ],
      "name": "Initialized",
      "type": "event"
    },
    {
      "anonymous": false,
      "inputs": [
        {
          "indexed": true,
          "internalType": "address",
          "name": "previousOwner",
          "type": "address"
        },
        {
          "indexed": true,
          "internalType": "address",
          "name": "newOwner",
          "type": "address"
        }
      ],
      "name": "OwnershipTransferred",
      "type": "event"
    },
    {
      "anonymous": false,
      "inputs": [
        {
          "indexed": true,
          "internalType": "address",
          "name": "addr",
          "type": "address"
        },
        {
          "components": [
            {
              "internalType": "bool",
              "name": "success",
              "type": "bool"
            },
            {
              "internalType": "bytes",
              "name": "returnData",
              "type": "bytes"
            }
          ],
          "indexed": false,
          "internalType": "struct UpgradeContract.Result[]",
          "name": "returnData",
          "type": "tuple[]"
        }
      ],
      "name": "UpgradeContract__AggregateSuccess",
      "type": "event"
    },
    {
      "anonymous": false,
      "inputs": [
        {
          "indexed": true,
          "internalType": "address",
          "name": "implementation",
          "type": "address"
        }
      ],
      "name": "Upgraded",
      "type": "event"
    },
    {
      "inputs": [
        {
          "components": [
            {
              "internalType": "bool",
              "name": "allowFailure",
              "type": "bool"
            },
            {
              "internalType": "uint256",
              "name": "value",
              "type": "uint256"
            },
            {
              "internalType": "bytes",
              "name": "payload",
              "type": "bytes"
            }
          ],
          "internalType": "struct UpgradeContract.Call[]",
          "name": "calls",
          "type": "tuple[]"
        }
      ],
      "name": "aggregate",
      "outputs": [
        {
          "components": [
            {
              "internalType": "bool",
              "name": "success",
              "type": "bool"
            },
            {
              "internalType": "bytes",
              "name": "returnData",
              "type": "bytes"
            }
          ],
          "internalType": "struct UpgradeContract.Result[]",
          "name": "returnData",
          "type": "tuple[]"
        }
      ],
      "stateMutability": "payable",
      "type": "function"
    },
    {
      "inputs": [],
      "name": "getNum",
      "outputs": [
        {
          "internalType": "uint256",
          "name": "",
          "type": "uint256"
        }
      ],
      "stateMutability": "pure",
      "type": "function"
    },
    {
      "inputs": [],
      "name": "initialize",
      "outputs": [],
      "stateMutability": "nonpayable",
      "type": "function"
    },
    {
      "inputs": [],
      "name": "num",
      "outputs": [
        {
          "internalType": "uint256",
          "name": "",
          "type": "uint256"
        }
      ],
      "stateMutability": "view",
      "type": "function"
    },
    {
      "inputs": [],
      "name": "owner",
      "outputs": [
        {
          "internalType": "address",
          "name": "",
          "type": "address"
        }
      ],
      "stateMutability": "view",
      "type": "function"
    },
    {
      "inputs": [],
      "name": "proxiableUUID",
      "outputs": [
        {
          "internalType": "bytes32",
          "name": "",
          "type": "bytes32"
        }
      ],
      "stateMutability": "view",
      "type": "function"
    },
    {
      "inputs": [],
      "name": "renounceOwnership",
      "outputs": [],
      "stateMutability": "nonpayable",
      "type": "function"
    },
    {
      "inputs": [
        {
          "internalType": "uint256",
          "name": "x",
          "type": "uint256"
        }
      ],
      "name": "setNum",
      "outputs": [
        {
          "internalType": "bool",
          "name": "success",
          "type": "bool"
        },
        {
          "internalType": "bytes",
          "name": "retData",
          "type": "bytes"
        }
      ],
      "stateMutability": "nonpayable",
      "type": "function"
    },
    {
      "inputs": [
        {
          "internalType": "string",
          "name": "x",
          "type": "string"
        }
      ],
      "name": "setStr",
      "outputs": [
        {
          "internalType": "bool",
          "name": "",
          "type": "bool"
        },
        {
          "internalType": "bytes",
          "name": "",
          "type": "bytes"
        }
      ],
      "stateMutability": "nonpayable",
      "type": "function"
    },
    {
      "inputs": [],
      "name": "str",
      "outputs": [
        {
          "internalType": "string",
          "name": "",
          "type": "string"
        }
      ],
      "stateMutability": "view",
      "type": "function"
    },
    {
      "inputs": [
        {
          "internalType": "address",
          "name": "newOwner",
          "type": "address"
        }
      ],
      "name": "transferOwnership",
      "outputs": [],
      "stateMutability": "nonpayable",
      "type": "function"
    },
    {
      "inputs": [
        {
          "internalType": "address",
          "name": "newImplementation",
          "type": "address"
        }
      ],
      "name": "upgradeTo",
      "outputs": [],
      "stateMutability": "nonpayable",
      "type": "function"
    },
    {
      "inputs": [
        {
          "internalType": "address",
          "name": "newImplementation",
          "type": "address"
        },
        {
          "internalType": "bytes",
          "name": "data",
          "type": "bytes"
        }
      ],
      "name": "upgradeToAndCall",
      "outputs": [],
      "stateMutability": "payable",
      "type": "function"
    }
  ],
  "transactionHash": "0xf8b0190a0000d6611c974a16c5243dc94c8b20b46620e181db38ea2b03754a84",
  "args": [],
  "numDeployments": 1,
  "solcInputHash": "9ab016e731ddaa209666bf14ee67d3f7",
  "bytecode": "0x60a06040523060805234801561001457600080fd5b5061001d610022565b6100e1565b600054610100900460ff161561008e5760405162461bcd60e51b815260206004820152602760248201527f496e697469616c697a61626c653a20636f6e747261637420697320696e697469604482015266616c697a696e6760c81b606482015260840160405180910390fd5b60005460ff908116146100df576000805460ff191660ff9081179091556040519081527f7f26b83ff96e1f2b6a682f133852f6798a09c465da95921460cefb38474024989060200160405180910390a15b565b6080516117ef61011860003960008181610541015281816105d7015281816106de01528181610774015261086f01526117ef6000f3fe6080604052600436106100d25760003560e01c806367e0badb1161007f5780638da5cb5b116100595780638da5cb5b146101da578063c15bae8414610202578063cd16ecbf14610224578063f2fde38b1461024457600080fd5b806367e0badb1461019c578063715018a6146101b05780638129fc1c146101c557600080fd5b80634e70b1dc116100b05780634e70b1dc146101505780634f1ef2861461017457806352d1902d1461018757600080fd5b8063191347df146100d7578063334b870e1461010e5780633659cfe61461012e575b600080fd5b3480156100e357600080fd5b506100f76100f23660046112ab565b610264565b604051610105929190611344565b60405180910390f35b61012161011c36600461135f565b610382565b60405161010591906113d4565b34801561013a57600080fd5b5061014e610149366004611484565b610537565b005b34801561015c57600080fd5b5061016660c95481565b604051908152602001610105565b61014e61018236600461149f565b6106d4565b34801561019357600080fd5b50610166610862565b3480156101a857600080fd5b50606f610166565b3480156101bc57600080fd5b5061014e610927565b3480156101d157600080fd5b5061014e61093b565b3480156101e657600080fd5b506097546040516001600160a01b039091168152602001610105565b34801561020e57600080fd5b50610217610a78565b6040516101059190611501565b34801561023057600080fd5b506100f761023f366004611514565b610b06565b34801561025057600080fd5b5061014e61025f366004611484565b610b86565b6000606060008360405160200161027b9190611501565b60405160208183030381529060405280519060200120905060006040516020016102d69060208082526006908201527f7265766572740000000000000000000000000000000000000000000000000000604082015260600190565b60405160208183030381529060405280519060200120905080820361033257846040517fd5f7e7950000000000000000000000000000000000000000000000000000000081526004016103299190611501565b60405180910390fd5b60ca61033e86826115b5565b5060016040518060400160405280600e81526020017f7365745374722073756363657373000000000000000000000000000000000000815250935093505050915091565b60606000828067ffffffffffffffff8111156103a0576103a061121f565b6040519080825280602002602001820160405280156103e657816020015b6040805180820190915260008152606060208201528152602001906001900390816103be5790505b5092503660005b828110156104f457600085828151811061040957610409611675565b6020026020010151905087878381811061042557610425611675565b9050602002810190610437919061168b565b602081013595860195909350600080308361045560408901896116c9565b604051610463929190611735565b60006040518083038185875af1925050503d80600081146104a0576040519150601f19603f3d011682016040523d82523d6000602084013e6104a5565b606091505b5091509150811580156104c257506104c06020870187611745565b155b156104dd5780516000036104d557600080fd5b805181602001fd5b9015158352602090920191909152506001016103ed565b5082341461052e576040517ffe9c0b1800000000000000000000000000000000000000000000000000000000815260040160405180910390fd5b50505092915050565b6001600160a01b037f00000000000000000000000000000000000000000000000000000000000000001630036105d55760405162461bcd60e51b815260206004820152602c60248201527f46756e6374696f6e206d7573742062652063616c6c6564207468726f7567682060448201527f64656c656761746563616c6c00000000000000000000000000000000000000006064820152608401610329565b7f00000000000000000000000000000000000000000000000000000000000000006001600160a01b03166106307f360894a13ba1a3210667c828492db98dca3e2076cc3735a920a3ca505d382bbc546001600160a01b031690565b6001600160a01b0316146106ac5760405162461bcd60e51b815260206004820152602c60248201527f46756e6374696f6e206d7573742062652063616c6c6564207468726f7567682060448201527f6163746976652070726f787900000000000000000000000000000000000000006064820152608401610329565b6106b581610c13565b604080516000808252602082019092526106d191839190610c1b565b50565b6001600160a01b037f00000000000000000000000000000000000000000000000000000000000000001630036107725760405162461bcd60e51b815260206004820152602c60248201527f46756e6374696f6e206d7573742062652063616c6c6564207468726f7567682060448201527f64656c656761746563616c6c00000000000000000000000000000000000000006064820152608401610329565b7f00000000000000000000000000000000000000000000000000000000000000006001600160a01b03166107cd7f360894a13ba1a3210667c828492db98dca3e2076cc3735a920a3ca505d382bbc546001600160a01b031690565b6001600160a01b0316146108495760405162461bcd60e51b815260206004820152602c60248201527f46756e6374696f6e206d7573742062652063616c6c6564207468726f7567682060448201527f6163746976652070726f787900000000000000000000000000000000000000006064820152608401610329565b61085282610c13565b61085e82826001610c1b565b5050565b6000306001600160a01b037f000000000000000000000000000000000000000000000000000000000000000016146109025760405162461bcd60e51b815260206004820152603860248201527f555550535570677261646561626c653a206d757374206e6f742062652063616c60448201527f6c6564207468726f7567682064656c656761746563616c6c00000000000000006064820152608401610329565b507f360894a13ba1a3210667c828492db98dca3e2076cc3735a920a3ca505d382bbc90565b61092f610dc0565b6109396000610e1a565b565b600054610100900460ff161580801561095b5750600054600160ff909116105b806109755750303b158015610975575060005460ff166001145b6109e75760405162461bcd60e51b815260206004820152602e60248201527f496e697469616c697a61626c653a20636f6e747261637420697320616c72656160448201527f647920696e697469616c697a65640000000000000000000000000000000000006064820152608401610329565b600080547fffffffffffffffffffffffffffffffffffffffffffffffffffffffffffffff001660011790558015610a28576000805461ff0019166101001790555b610a30610e84565b80156106d1576000805461ff0019169055604051600181527f7f26b83ff96e1f2b6a682f133852f6798a09c465da95921460cefb38474024989060200160405180910390a150565b60ca8054610a859061152d565b80601f0160208091040260200160405190810160405280929190818152602001828054610ab19061152d565b8015610afe5780601f10610ad357610100808354040283529160200191610afe565b820191906000526020600020905b815481529060010190602001808311610ae157829003601f168201915b505050505081565b60006060600a831015610b48576040517f37c1965f00000000000000000000000000000000000000000000000000000000815260048101849052602401610329565b505060c95560408051808201909152600e81527f7365744e756d20737563636573730000000000000000000000000000000000006020820152600191565b610b8e610dc0565b6001600160a01b038116610c0a5760405162461bcd60e51b815260206004820152602660248201527f4f776e61626c653a206e6577206f776e657220697320746865207a65726f206160448201527f64647265737300000000000000000000000000000000000000000000000000006064820152608401610329565b6106d181610e1a565b6106d1610dc0565b7f4910fdfa16fed3260ed0e7147f7cc6da11a60208b5b9406d12a635614ffd91435460ff1615610c5357610c4e83610f09565b505050565b826001600160a01b03166352d1902d6040518163ffffffff1660e01b8152600401602060405180830381865afa925050508015610cad575060408051601f3d908101601f19168201909252610caa91810190611767565b60015b610d1f5760405162461bcd60e51b815260206004820152602e60248201527f45524331393637557067726164653a206e657720696d706c656d656e7461746960448201527f6f6e206973206e6f7420555550530000000000000000000000000000000000006064820152608401610329565b7f360894a13ba1a3210667c828492db98dca3e2076cc3735a920a3ca505d382bbc8114610db45760405162461bcd60e51b815260206004820152602960248201527f45524331393637557067726164653a20756e737570706f727465642070726f7860448201527f6961626c655555494400000000000000000000000000000000000000000000006064820152608401610329565b50610c4e838383610fdf565b6097546001600160a01b031633146109395760405162461bcd60e51b815260206004820181905260248201527f4f776e61626c653a2063616c6c6572206973206e6f7420746865206f776e65726044820152606401610329565b609780546001600160a01b038381167fffffffffffffffffffffffff0000000000000000000000000000000000000000831681179093556040519116919082907f8be0079c531659141344cd1fd0a4f28419497f9722a3daafe3b4186f6b6457e090600090a35050565b600054610100900460ff16610f015760405162461bcd60e51b815260206004820152602b60248201527f496e697469616c697a61626c653a20636f6e7472616374206973206e6f74206960448201527f6e697469616c697a696e670000000000000000000000000000000000000000006064820152608401610329565b61093961100a565b6001600160a01b0381163b610f865760405162461bcd60e51b815260206004820152602d60248201527f455243313936373a206e657720696d706c656d656e746174696f6e206973206e60448201527f6f74206120636f6e7472616374000000000000000000000000000000000000006064820152608401610329565b7f360894a13ba1a3210667c828492db98dca3e2076cc3735a920a3ca505d382bbc80547fffffffffffffffffffffffff0000000000000000000000000000000000000000166001600160a01b0392909216919091179055565b610fe883611090565b600082511180610ff55750805b15610c4e5761100483836110d0565b50505050565b600054610100900460ff166110875760405162461bcd60e51b815260206004820152602b60248201527f496e697469616c697a61626c653a20636f6e7472616374206973206e6f74206960448201527f6e697469616c697a696e670000000000000000000000000000000000000000006064820152608401610329565b61093933610e1a565b61109981610f09565b6040516001600160a01b038216907fbc7cd75a20ee27fd9adebab32041f755214dbc6bffa90cc0225b39da2e5c2d3b90600090a250565b60606110f58383604051806060016040528060278152602001611793602791396110fc565b9392505050565b6060600080856001600160a01b0316856040516111199190611780565b600060405180830381855af49150503d8060008114611154576040519150601f19603f3d011682016040523d82523d6000602084013e611159565b606091505b509150915061116a86838387611174565b9695505050505050565b606083156111e35782516000036111dc576001600160a01b0385163b6111dc5760405162461bcd60e51b815260206004820152601d60248201527f416464726573733a2063616c6c20746f206e6f6e2d636f6e74726163740000006044820152606401610329565b50816111ed565b6111ed83836111f5565b949350505050565b8151156112055781518083602001fd5b8060405162461bcd60e51b81526004016103299190611501565b634e487b7160e01b600052604160045260246000fd5b600067ffffffffffffffff808411156112505761125061121f565b604051601f8501601f19908116603f011681019082821181831017156112785761127861121f565b8160405280935085815286868601111561129157600080fd5b858560208301376000602087830101525050509392505050565b6000602082840312156112bd57600080fd5b813567ffffffffffffffff8111156112d457600080fd5b8201601f810184136112e557600080fd5b6111ed84823560208401611235565b60005b8381101561130f5781810151838201526020016112f7565b50506000910152565b600081518084526113308160208601602086016112f4565b601f01601f19169290920160200192915050565b82151581526040602082015260006111ed6040830184611318565b6000806020838503121561137257600080fd5b823567ffffffffffffffff8082111561138a57600080fd5b818501915085601f83011261139e57600080fd5b8135818111156113ad57600080fd5b8660208260051b85010111156113c257600080fd5b60209290920196919550909350505050565b60006020808301818452808551808352604092508286019150828160051b87010184880160005b8381101561145a578883037fffffffffffffffffffffffffffffffffffffffffffffffffffffffffffffffc0018552815180511515845287015187840187905261144787850182611318565b95880195935050908601906001016113fb565b509098975050505050505050565b80356001600160a01b038116811461147f57600080fd5b919050565b60006020828403121561149657600080fd5b6110f582611468565b600080604083850312156114b257600080fd5b6114bb83611468565b9150602083013567ffffffffffffffff8111156114d757600080fd5b8301601f810185136114e857600080fd5b6114f785823560208401611235565b9150509250929050565b6020815260006110f56020830184611318565b60006020828403121561152657600080fd5b5035919050565b600181811c9082168061154157607f821691505b60208210810361156157634e487b7160e01b600052602260045260246000fd5b50919050565b601f821115610c4e57600081815260208120601f850160051c8101602086101561158e5750805b601f850160051c820191505b818110156115ad5782815560010161159a565b505050505050565b815167ffffffffffffffff8111156115cf576115cf61121f565b6115e3816115dd845461152d565b84611567565b602080601f83116001811461161857600084156116005750858301515b600019600386901b1c1916600185901b1785556115ad565b600085815260208120601f198616915b8281101561164757888601518255948401946001909101908401611628565b50858210156116655787850151600019600388901b60f8161c191681555b5050505050600190811b01905550565b634e487b7160e01b600052603260045260246000fd5b600082357fffffffffffffffffffffffffffffffffffffffffffffffffffffffffffffffa18336030181126116bf57600080fd5b9190910192915050565b60008083357fffffffffffffffffffffffffffffffffffffffffffffffffffffffffffffffe18436030181126116fe57600080fd5b83018035915067ffffffffffffffff82111561171957600080fd5b60200191503681900382131561172e57600080fd5b9250929050565b8183823760009101908152919050565b60006020828403121561175757600080fd5b813580151581146110f557600080fd5b60006020828403121561177957600080fd5b5051919050565b600082516116bf8184602087016112f456fe416464726573733a206c6f772d6c6576656c2064656c65676174652063616c6c206661696c6564a2646970667358221220ec04e4aeee35d28d871209f1845d4c8c8cbe1963833776800a8a1dde5c96d43964736f6c63430008110033",
  "devdoc": {
    "kind": "dev",
    "methods": {
      "owner()": {
        "details": "Returns the address of the current owner."
      },
      "proxiableUUID()": {
        "details": "Implementation of the ERC1822 {proxiableUUID} function. This returns the storage slot used by the implementation. It is used to validate the implementation's compatibility when performing an upgrade. IMPORTANT: A proxy pointing at a proxiable contract should not be considered proxiable itself, because this risks bricking a proxy that upgrades to it, by delegating to itself until out of gas. Thus it is critical that this function revert if invoked through a proxy. This is guaranteed by the `notDelegated` modifier."
      },
      "renounceOwnership()": {
        "details": "Leaves the contract without owner. It will not be possible to call `onlyOwner` functions. Can only be called by the current owner. NOTE: Renouncing ownership will leave the contract without an owner, thereby disabling any functionality that is only available to the owner."
      },
      "transferOwnership(address)": {
        "details": "Transfers ownership of the contract to a new account (`newOwner`). Can only be called by the current owner."
      },
      "upgradeTo(address)": {
        "custom:oz-upgrades-unsafe-allow-reachable": "delegatecall",
        "details": "Upgrade the implementation of the proxy to `newImplementation`. Calls {_authorizeUpgrade}. Emits an {Upgraded} event."
      },
      "upgradeToAndCall(address,bytes)": {
        "custom:oz-upgrades-unsafe-allow-reachable": "delegatecall",
        "details": "Upgrade the implementation of the proxy to `newImplementation`, and subsequently execute the function call encoded in `data`. Calls {_authorizeUpgrade}. Emits an {Upgraded} event."
      }
    },
    "version": 1
  },
  "userdoc": {
    "kind": "user",
    "methods": {},
    "version": 1
  },
  "storageLayout": {
    "storage": [
      {
        "astId": 503,
        "contract": "src/Test/TestUpgrade.sol:UpgradeContract",
        "label": "_initialized",
        "offset": 0,
        "slot": "0",
        "type": "t_uint8"
      },
      {
        "astId": 506,
        "contract": "src/Test/TestUpgrade.sol:UpgradeContract",
        "label": "_initializing",
        "offset": 1,
        "slot": "0",
        "type": "t_bool"
      },
      {
        "astId": 485,
        "contract": "src/Test/TestUpgrade.sol:UpgradeContract",
        "label": "__gap",
        "offset": 0,
        "slot": "1",
        "type": "t_array(t_uint256)50_storage"
      },
      {
        "astId": 800,
        "contract": "src/Test/TestUpgrade.sol:UpgradeContract",
        "label": "__gap",
        "offset": 0,
        "slot": "51",
        "type": "t_array(t_uint256)50_storage"
      },
      {
        "astId": 1172,
        "contract": "src/Test/TestUpgrade.sol:UpgradeContract",
        "label": "__gap",
        "offset": 0,
        "slot": "101",
        "type": "t_array(t_uint256)50_storage"
      },
      {
        "astId": 10,
        "contract": "src/Test/TestUpgrade.sol:UpgradeContract",
        "label": "_owner",
        "offset": 0,
        "slot": "151",
        "type": "t_address"
      },
      {
        "astId": 130,
        "contract": "src/Test/TestUpgrade.sol:UpgradeContract",
        "label": "__gap",
        "offset": 0,
        "slot": "152",
        "type": "t_array(t_uint256)49_storage"
      },
      {
        "astId": 1305,
        "contract": "src/Test/TestUpgrade.sol:UpgradeContract",
        "label": "num",
        "offset": 0,
        "slot": "201",
        "type": "t_uint256"
      },
      {
        "astId": 1307,
        "contract": "src/Test/TestUpgrade.sol:UpgradeContract",
        "label": "str",
        "offset": 0,
        "slot": "202",
        "type": "t_string_storage"
      }
    ],
    "types": {
      "t_address": {
        "encoding": "inplace",
        "label": "address",
        "numberOfBytes": "20"
      },
      "t_array(t_uint256)49_storage": {
        "base": "t_uint256",
        "encoding": "inplace",
        "label": "uint256[49]",
        "numberOfBytes": "1568"
      },
      "t_array(t_uint256)50_storage": {
        "base": "t_uint256",
        "encoding": "inplace",
        "label": "uint256[50]",
        "numberOfBytes": "1600"
      },
      "t_bool": {
        "encoding": "inplace",
        "label": "bool",
        "numberOfBytes": "1"
      },
      "t_string_storage": {
        "encoding": "bytes",
        "label": "string",
        "numberOfBytes": "32"
      },
      "t_uint256": {
        "encoding": "inplace",
        "label": "uint256",
        "numberOfBytes": "32"
      },
      "t_uint8": {
        "encoding": "inplace",
        "label": "uint8",
        "numberOfBytes": "1"
      }
    }
  }
}